:100000000C946D000C9495000C9495000C94950044
:100010000C9495000C9495000C9495000C9495000C
:100020000C9495000C9495000C9495000C949500FC
:100030000C9495000C9495000C9495000C949500EC
:100040000C949E040C9495000C946C040C9446043F
:100050000C9495000C9495000C9495000C949500CC
:100060000C9495000C9495000000000024002700DB
:100070002A002D0000000000250028002B002E0083
:100080000000000850020100000304070000000007
:1000900000000000000000000000230026002900EE
:1000A0002C000404040404040404020202020202F8
:1000B0000303030303030505050505050501020404
:1000C00008102040800102040810200102040810DA
:1000D0002002080104102040DB0711241FBECFEFCF
:1000E000D8E0DEBFCDBF11E0A0E0B1E0E0E2F0E19A
:1000F00002C005900D92A436B107D9F722E0A4E61C
:10010000B1E001C01D92A331B207E1F710E0CDE6E6
:10011000D0E004C02197FE010E940808CC36D10728
:10012000C9F70E94E8040C940E080C940000EAEC55
:10013000F0E08491EFEAF0E0E491F0E0EE0FFF1FD1
:10014000EA56FF4FA591B4918C930895AF92BF9258
:10015000CF92DF92EF92FF920F931F93CF93DF9393
:100160006C017B018B01040F151FEB015E01AE18C2
:10017000BF08C017D10759F06991D601ED91FC91E4
:100180000190F081E02DC6010995892B79F7C50111
:10019000DF91CF911F910F91FF90EF90DF90CF9063
:1001A000BF90AF900895FC01538D448D252F30E012
:1001B000842F90E0821B930B541710F0CF96089574
:1001C00001970895FC01918D828D981761F0A28DA1
:1001D000AE0FBF2FB11D5D968C91928D9F5F9F7367
:1001E000928F90E008958FEF9FEF0895FC01918D1D
:1001F000828D981731F0828DE80FF11D858D90E08A
:1002000008958FEF9FEF0895FC01918D228D892F26
:1002100090E0805C9F4F821B91098F73992708950E
:1002200086E791E00E94040121E0892B09F420E097
:10023000822F089580E090E0892B29F00E94100120
:1002400081110C9400000895FC01A48DA80FB92F12
:10025000B11DA35ABF4F2C91848D90E001968F73EE
:100260009927848FA689B7892C93A089B1898C910D
:1002700080648C93938D848D981306C00288F389D3
:10028000E02D80818F7D80830895EF92FF920F9300
:100290001F93CF93DF93EC0181E0888F9B8D8C8D32
:1002A000981316C0E889F989808185FF11C0EE890D
:1002B000FF896083E889F98980818064808381E097
:1002C00090E0DF91CF911F910F91FF90EF900895F3
:1002D000F62E0B8D10E00F5F1F4F0F731127E02ECE
:1002E0008C8D8E110CC00FB607FCFACFE889F98906
:1002F000808185FFF5CFCE010E942401F1CFEB8DE7
:10030000EC0FFD2FF11DE35AFF4FF0820B8FEA89AE
:10031000FB8980818062D2CFCF93DF93EC01888DFF
:100320008823B9F0AA89BB89E889F9898C9185FD70
:1003300003C0808186FD0DC00FB607FCF7CF8C91FE
:1003400085FFF2CF808185FFEDCFCE010E94240191
:10035000E9CFDF91CF9108953FB7F894809169017B
:1003600090916A01A0916B01B0916C0126B5A89B98
:1003700005C02F3F19F00196A11DB11D3FBFBA2F37
:10038000A92F982F8827BC01CD01620F711D811DF7
:10039000911D42E0660F771F881F991F4A95D1F77C
:1003A00008958F929F92AF92BF92CF92DF92EF9279
:1003B000FF924B015C010E94AC016B017C010E9429
:1003C000AC016C197D098E099F09683E7340810557
:1003D0009105A8F321E0821A9108A108B10888EEDE
:1003E000C80E83E0D81EE11CF11C81149104A10405
:1003F000B10429F7FF90EF90DF90CF90BF90AF90BE
:100400009F908F9008952FB7F89460916501709137
:10041000660180916701909168012FBF0895CF9385
:10042000DF931F92CDB7DEB7729A19829981981720
:1004300020F00F90DF91CF91089570980000000098
:1004400000000000000000000000000000000000AC
:1004500000000000709A0000000000000000000092
:100460000000000000000000000000000000998172
:100470009F5F9983DBCFCF93DF9300D0CDB7DEB7FB
:100480001A828823D9F0709872980000000000004A
:10049000000000000000000000000000000000005C
:1004A0000000709A00000000000000000000000042
:1004B000000000000000000000000000729A6A982E
:1004C00019828981883028F16A9A7098662309F424
:1004D00046C0729A0000000000000000000000000A
:1004E000000000000000000000000000709A000002
:1004F00000000000000000000000000000000000FC
:100500000000000000008A810F900F90DF91CF91D2
:1005100008958A8186958A83709800000000000003
:1005200000000000000000000000000000000000CB
:100530000000629B03C08A8180688A83709A0000F1
:1005400000000000000000000000000000000000AB
:1005500000000000000089818F5F8983B2CF72980C
:10056000B9CFCF93DF931F92CDB7DEB7882309F4BD
:1005700027C070980000000000000000000000008C
:100580000000000000000000000000007298000061
:10059000000000000000000000000000000000005B
:1005A000000000000000709A000000000000000041
:1005B000000000000000000000000000000000003B
:1005C000198289817098883008F1442309F441C068
:1005D000729A00000000000000000000000000000F
:1005E00000000000000000000000709A0000000001
:1005F00000000000000000000000000000000000FB
:10060000000000000F90DF91CF91089560FF1FC0A0
:10061000729A0000000000000000000000000000CE
:10062000000000000000000000006695709A0000C5
:1006300000000000000000000000000000000000BA
:1006400000000000000089818F5F8983BACF729813
:10065000E0CF7298BECF1F93CF93DF93C82F162F92
:10066000D72F40E062EB81E00E94B10240E0612FB1
:1006700080E00E94B102DF736C2F6295660F660FF7
:10068000607C6D2B40E080E00E94B1026C2F66958B
:100690006695606C41E080E00E94B10288E0DF91E5
:1006A000CF911F910C940F0240E060EF81E00E9417
:1006B000B10240E063E280E00E94B10240E060E508
:1006C00080E00E94B10240E069E480E00E94B10253
:1006D00041E06DE280E00E94B10288E00C940F02DC
:1006E00040E060EF81E00E94B10240E064E580E01C
:1006F0000E94B10240E061E580E00E94B10240E06A
:100700006AE480E00E94B10241E06CE480E00E9473
:10071000B10288E00C940F0240E060ED81E00E949D
:10072000B10240E06AEA80E00E94B10240E065E583
:1007300080E00E94B10240E06AEA80E00E94B102DB
:1007400041E065E580E00E94B10288E00C940F0270
:10075000CF93DF93EC0141E06EEA81E00E94B102A9
:1007600088E00E940F0260E081E00E943B028883E3
:1007700060E080E00E943B02898360E080E00E94AC
:100780003B028A8361E080E00E943B028B8388E029
:10079000DF91CF910C940F028DB185608DB9729865
:1007A00070980895CF93DF93FC0101900020E9F742
:1007B0003197AF01481B590BBC0186E791E00E94BD
:1007C000A600EC0142E050E062E171E086E791E0D2
:1007D0000E94A6008C0F9D1FDF91CF910895CF92AC
:1007E000DF92EF92FF92CF93DF936B017C01EA01DE
:1007F000BA0184E80E942B0340E062EB81E00E9492
:10080000B10240E06C2D80E00E94B10299278F2D4B
:100810007E2D6D2D40E080E00E94B102B701882757
:10082000992740E080E00E94B1026F2D772788274A
:10083000992741E080E00E94B10288E00E940F0207
:10084000BE0186E80E942B0383E090E00197F1F758
:10085000BE0186EC0E942B038BE290E00197F1F73A
:10086000BE0186E80E942B03BE0182E80E942B0392
:10087000BE0180E80E942B03BE0180E0DF91CF9192
:10088000FF90EF90DF90CF900C942B031F920F926C
:100890000FB60F9211242F933F934F935F936F9353
:1008A0007F938F939F93AF93BF93EF93FF9386E7CD
:1008B00091E00E942401FF91EF91BF91AF919F9130
:1008C0008F917F916F915F914F913F912F910F90F9
:1008D0000FBE0F901F9018951F920F920FB60F9298
:1008E00011242F938F939F93EF93FF93E0918601B1
:1008F000F09187018081E0918C01F0918D0182FD62
:100900001BC0908180918F018F5F8F732091900128
:10091000821741F0E0918F01F0E0EA58FE4F958F89
:1009200080938F01FF91EF919F918F912F910F9065
:100930000FBE0F901F9018958081F4CF1F920F92D9
:100940000FB60F9211242F933F938F939F93AF93E2
:10095000BF938091650190916601A0916701B0916C
:1009600068013091640123E0230F2D3758F501967B
:10097000A11DB11D209364018093650190936601D0
:10098000A0936701B09368018091690190916A0119
:10099000A0916B01B0916C010196A11DB11D8093D6
:1009A000690190936A01A0936B01B0936C01BF91B0
:1009B000AF919F918F913F912F910F900FBE0F900C
:1009C0001F90189526E8230F0296A11DB11DD2CFC6
:1009D000CF93DF9300D000D000D0CDB7DEB78091A9
:1009E000EE0087608EBB80E88093EE009EB390930C
:1009F000EE009091F20090619EBB8093F2009EB356
:100A00009093F2008093610081E08093610078947C
:100A100084B5826084BD84B5816084BD85B5826003
:100A200085BD85B5816085BD80916E0081608093B4
:100A30006E0010928100809181008260809381001D
:100A4000809181008160809381008091800081602D
:100A5000809380008091B10084608093B100809188
:100A6000B00081608093B00080919100826080939B
:100A7000910080919100816080939100809190001D
:100A800081608093900080917A00846080937A00E6
:100A900080917A00826080937A0080917A008160F0
:100AA00080937A0080917A00806880937A00109217
:100AB000C1004AEC50E0FA0164918FEA90E0FC0139
:100AC0002491222399F030E0220F331FF901E859D5
:100AD000FF4FA591B491F901EC58FF4F2591349146
:100AE0002FB7F8943C91632B6C932FBFEDE8F0E0A7
:100AF0002491FA014491FC018491882349F1222335
:100B0000C9F021502B30B0F4E22FF0E0E657FA4F55
:100B10000C9408086F06730695056B069A059A05EE
:100B200076067C06800686068A06909180009F776E
:100B300090938000E82FF0E0EE0FFF1FEC58FF4F7E
:100B4000A591B4918FB7F8949C91492B4C938FBF8A
:100B5000E0918601F091870182E08083E09182013B
:100B6000F09183011082E0918401F09185018FEC76
:100B7000808310928E01E0918A01F0918B0186E0D2
:100B80008083E0918801F091890180818061808378
:100B9000E0918801F0918901808188608083E091F3
:100BA0008801F0918901808180688083E0918801CB
:100BB000F091890180818F7D808368EE73E080E011
:100BC00090E00E94D10185E191E00E94D20384B7B8
:100BD000806884BF84B7806884BF8091F00080689B
:100BE0008093F0008091F00081608093F000469A3D
:100BF0003E9A85B7816085BF85B78F7E85BF0E948D
:100C0000CC03469A3E986AE070E080E090E00E9453
:100C1000D10146983E9A6AE070E080E090E00E9440
:100C2000D10180E50E940F020E94CC0380E50E9462
:100C30000F020E948C03CE0101960E94A8038A81B4
:100C4000823A09F46BC0813A09F46FC010E0109346
:100C50006D0165E070E080E090E00E94D10111112B
:100C60000FC189E291E00E94D203469A3E988FEF2D
:100C700088B965E070E080E090E00E94D1010E94B8
:100C8000030260936E0170936F01809370019093E3
:100C90007101369BEBC00E94030200916E0110911E
:100CA0006F012091700130917101601B710B820BFB
:100CB000930B653671058105910558F30E94030277
:100CC00060936E0170936F01809370019093710136
:100CD0000E949700DECF909180009F7D29CF94B530
:100CE0009F7794BD27CF94B59F7DFBCF9091B000A7
:100CF0009F779093B0001ECF9091B0009F7DF9CF69
:100D0000909190009F779093900014CF90919000D5
:100D10009F7DF9CF90919000977FF5CF12E0898168
:100D20008F738F3321F4106892CF11E0F8CF0E94B7
:100D30007003123009F053C070E060E080E00E9460
:100D40002B032BE8E22EFF24F394C7010197F1F760
:100D500070E060E088E90E942B0383EC90E001974B
:100D6000F1F770E060E08AE90E942B036EE170E029
:100D700080E090E00E94D10170E060E08AE80E948B
:100D80002B038BEA94E00197F1F770E060E088E8CC
:100D90000E942B03C7010197F1F770E060E080E04B
:100DA0000E942B03C7010197F1F70E9454038BE8BF
:100DB000E82EFF24F394C7010197F1F70E94700316
:100DC000C7010197F1F70E945403CE0101960E94DA
:100DD000A80389818F738F3309F038CFA4CF8FE1B7
:100DE0008D8370E060E080E00E942B0365E070E09E
:100DF00080E090E00E94D10170E060E088E00E9415
:100E00002B0370E060E088E80E942B0370E060E054
:100E100082E00E942B0393ECE92EF12CC70101978D
:100E2000F1F741E06AEA81E00E94B10288E00E94A5
:100E30000F0260E081E00E943B0260E080E00E94DF
:100E40003B0261E080E00E943B02082F88E00E94A4
:100E50000F0201700E838D8181508D838E818130D0
:100E600009F0A3CF8D818111D9CF9FCF8091F00060
:100E700080688093F0008091F0008E7F8093F00076
:100E80008AE00E940F021092730110927201E0E951
:100E9000F0E1659175918591949150E040E00E9458
:100EA000EF0384E990E1909375018093740184E5E8
:100EB00091E00E94D20380E09DE1909373018093C2
:100EC0007201E0907201F090730100917401109131
:100ED0007501F8016591759185919491A7010E9422
:100EE000EF030C5F1F4F1093750100937401FFEF28
:100EF000EF1AFF0AF0927301E0927201E1142DE201
:100F0000F206F9F60E948C038DB18A7F8DB910929A
:100F10006D01469A3E988DE591E00E94D203469A73
:100F20003E988FEF88B965E070E080E090E00E9425
:100F3000D1010E94030260936E0170936F01809350
:100F4000700190937101369B20C00E9403020091B2
:100F50006E0110916F012091700130917101601B41
:100F6000710B820B930B693E73408105910558F319
:100F70000E94030260936E0170936F018093700171
:100F8000909371010E949700DECF8091F0008068FD
:100F90008093F0008091F0008E7F8093F00000E05D
:100FA00010E001151105E9F30E9410018823C9F32F
:100FB0000E940000F6CFE6E7F1E01382128288EE8D
:100FC00093E0A0E0B0E084839583A683B78384E0B8
:100FD00091E09183808385EC90E09587848784EC11
:100FE00090E09787868780EC90E0918B808B81ECF6
:100FF00090E0938B828B82EC90E0958B848B86ECD7
:1010000090E0978B868B118E128E138E148E08951E
:10101000EE0FFF1F0590F491E02D0994F894FFCF97
:10102000000000004501A600D3008C010401E2008D
:10103000F6000D0A00616B20736861726520323022
:1010400032302D31322D303700E4B88BE8BDBDE5AC
:10105000A4B1E8B4A5EFBC8CE8AFB7E68C89E5A4F1
:101060008DE4BD8DE68C89E994AEE9878DE8AF9576
:10107000E380820073746172742E2E2E00646F6E92
:1010800065210000000000000000000000000000DA
:101090000C94003A11248FEF98E09EBF8DBF94B757
:1010A00014BE892F8D7011F0892FE0D190E89093B4
:1010B000F20083E98093F2009093610081E08093D5
:1010C000610096BF8CE486BF85E08093810088E153
:1010D0008093C10086E08093C20080E18093C400C9
:1010E0008DE0AED1259A96E020E33CEF51E040E25E
:1010F000309385002093840056BBB09BFECF85B112
:10110000842785B9A895915099F7662477244301DF
:10111000CC24DD2464E9A62E51E0252E312C412C6F
:10112000512C7DD1813461F47AD1182F8FD11238AE
:1011300029F1113811F485E001C083E068D164C160
:10114000823411F484E103C0853419F485E086D13A
:101150005BC1853579F463D1E82EFF2460D1082F77
:1011600010E0102F00270E291F29000F111F6ED12C
:1011700068014AC1863521F484E070D180E0DECF79
:10118000843609F0C5C04BD190E0F82EEE2447D14B
:10119000E80EF11C44D1B82EE70100E011E03FD188
:1011A000F80181938F012197D1F711BC8D2D9927DB
:1011B00082BD82B586958695282FD401C301022E63
:1011C00004C0B695A795979587950A94D2F780FDA8
:1011D00015C0F6E4BF1691F4D201C10104C0880F16
:1011E000991FAA1FBB1F2A95D2F7682A792A8A2A33
:1011F0009B2AAFBA82E98FBB0000000027D1E5E44B
:10120000BE16B1F4960110C021BD2F5F3F4F832F52
:10121000992782BDC050DF4F888180BDF4E0FFBBBD
:1012200082E08FBBCF5FD040CE15DF0568F3DBC017
:10123000C114D10409F04EC0609100017091010108
:10124000872F90E0982F8827262F30E0822B932B32
:101250009093850180938401409102015091030194
:10126000852F90E0982F8827242F30E0822B932B16
:101270009093870180938601209118018091190134
:1012800090E0982F882730E0822B932B9093890150
:101290008093880120911A0180911B0190E0982F82
:1012A000882730E0822B932B90938B0180938A01C7
:1012B000609318017093190140931A0150931B0118
:1012C0008CE080930001A092010110920201EAE3F8
:1012D000E0930301E0E0F1E011BC808180BD81E09A
:1012E00081BD818180BD82E081BD828180BD83E03E
:1012F00081BD838180BD8E2F8C0D81BD84EA8FBB23
:1013000082EA8FBB349681E0E038F80729F77CC089
:10131000843709F06BC083D090E0F82EEE247FD0A4
:10132000E80EF11C7CD0182F91D0153489F4E60119
:101330008701C1BD21968D2F992782BDE1E0EFBBCA
:101340000000000080B563D00150104091F74BC001
:10135000E6018701209729F480918401909185010D
:101360003CC0C130D10529F4809184019091850160
:101370000FC0C230D10529F4809186019091870178
:101380002CC0C330D10539F480918601909187013A
:10139000892F992722C0C831D10529F4809188016D
:1013A000909189011AC0C931D10529F48091880131
:1013B00090918901EDCFCA31D10529F480918A013C
:1013C00090918B010AC0CB31D10529F480918A011B
:1013D00090918B01DDCFFE018491219618D00150B0
:1013E000104009F0B7CFCE0CDF1C0EC0853739F4A2
:1013F0002DD08EE10CD085E90AD08FE09FCE8135CB
:1014000011F48CE01DD022D080E101D08ACE982F3B
:101410008091C00085FFFCCF9093C6000895809115
:10142000C00087FFFCCF8091C00084FD01C0A8955B
:101430008091C60008959AE29A95F1F7089508956B
:10144000E0E6F0E098E1908380830895E8DF803261
:1014500019F08DE0F5DFFFCF84E1D9CF1F93182F6E
:10146000DEDF1150E9F7F2DF1F910895282E80E0AA
:10147000E7DFECE0FF270994000000000000000017
:10148000000000000000000000000000000000005C
:041490000000000553
:00000001FF
