:100000000C9463000C948B000C948B000C94CB0329
:100010000C94CB030C94CB030C948B000C948B00AE
:100020000C948B000C948B000C948B000C948B0024
:100030000C948B000C948B000C948B000C948B0014
:100040000C9481030C948B000C944F030C942903A3
:100050000C948B000C948B000C948B000C948B00F4
:100060000C948B000C948B0000000008000201002F
:100070000003040700000000000000000000000072
:10008000250028002B0000000000240027002A0083
:1000900000000000230026002900040404040404D6
:1000A0000404020202020202030303030303010227
:1000B00004081020408001020408102001020408F6
:1000C00010204504860611241FBECFEFD8E0DEBF06
:1000D000CDBF11E0A0E0B1E0E0EAFDE002C0059094
:1000E0000D92AC36B107D9F722E0ACE6B1E001C021
:1000F0001D92A537B207E1F710E0C2E6D0E004C0D8
:100100002197FE010E94B806C136D107C9F70E94A7
:1001100027050C94C3060C940000CF92DF92EF9257
:10012000FF920F931F93CF93DF936C017A018B01A2
:10013000C0E0D0E0CE15DF0589F0D8016D918D01CA
:10014000D601ED91FC910190F081E02DC601099559
:10015000892B11F47E0102C02196ECCFC701DF91FB
:10016000CF911F910F91FF90EF90DF90CF90089566
:10017000FC01538D448D252F30E0842F90E0821BAD
:10018000930B541710F0CF96089501970895FC0132
:10019000918D828D981761F0828DDF01A80FB11DBE
:1001A0005D968C91928D9F5F9F73928F90E00895E2
:1001B0008FEF9FEF0895FC01918D828D981731F09C
:1001C000828DE80FF11D858D90E008958FEF9FEFF0
:1001D0000895FC01918D228D892F90E0805C9F4FC6
:1001E000821B91098F739927089589EB91E00E94F2
:1001F000E90021E0892B09F420E0822F0895FC0119
:10020000848DDF01A80FB11DA35ABF4F2C91848D9F
:1002100090E001968F739927848FA689B7892C93D4
:10022000A089B1898C9180648C93938D848D98136F
:1002300006C00288F389E02D80818F7D8083089538
:10024000EF92FF920F931F93CF93DF93EC0181E026
:10025000888F9B8D8C8D981305C0E889F9898081E2
:1002600085FD24C0F62E0B8D10E00F5F1F4F0F731E
:100270001127E02E8C8DE8120CC00FB607FCFACFC8
:10028000E889F989808185FFF5CFCE010E94FF00C2
:10029000F1CF8B8DFE01E80FF11DE35AFF4FF08285
:1002A0000B8FEA89FB898081806207C0EE89FF8914
:1002B0006083E889F98980818064808381E090E0AF
:1002C000DF91CF911F910F91FF90EF900895CF9301
:1002D000DF93EC01888D8823C9F0EA89FB8980814E
:1002E00085FD05C0A889B9898C9186FD0FC00FB620
:1002F00007FCF5CF808185FFF2CFA889B9898C9161
:1003000085FFEDCFCE010E94FF00E7CFDF91CF91B7
:10031000089580E090E0892B29F00E94F50081117A
:100320000C940000089590E0FC01E859FF4F3491CF
:10033000FC01E255FF4F2491FC01E656FF4FE4918A
:10034000EE2309F43BC0332339F1333091F038F414
:100350003130A9F0323001F584B58F7D12C03730CD
:1003600091F03830A1F03430B9F4809180008F7D65
:1003700003C0809180008F77809380000DC084B58A
:100380008F7784BD09C08091B0008F7703C08091C2
:10039000B0008F7D8093B000F0E0EE0FFF1FE458B7
:1003A000FF4FA591B4918FB7F894EC91611103C000
:1003B00020952E2301C02E2B2C938FBF08953FB77D
:1003C000F8948091B1019091B201A091B301B091E4
:1003D000B40126B5A89B05C02F3F19F00196A11DB9
:1003E000B11D3FBFBA2FA92F982F8827820F911DCB
:1003F000A11DB11DBC01CD0142E0660F771F881F12
:10040000991F4A95D1F708958F929F92AF92BF920C
:10041000CF92DF92EF92FF926B017C010E94DF018D
:100420004B015C01C114D104E104F104F1F00E941C
:10043000DF01DC01CB0188199909AA09BB09883EB3
:100440009340A105B10570F321E0C21AD108E1087B
:10045000F10888EE880E83E0981EA11CB11CC1141F
:10046000D104E104F10419F7DDCFFF90EF90DF90A4
:10047000CF90BF90AF909F908F9008952091B7013B
:100480003091B8012817390771F49091B501809126
:10049000B601981741F0E091B501F0E0E459FE4F44
:1004A000808190E008958FEF9FEF089508951F9346
:1004B000CF93DF93DC015C962D913C915D972115E4
:1004C000310539F481E090E013969C938E93129756
:1004D0003DC05196ED91FC91529750969C9150974A
:1004E000892F80951FB75E964C915E9741FB7727C9
:1004F00070F941FD6095F8944081772311F0492B04
:1005000001C048234083E9012197F1F748E0508179
:1005100060FF02C0592B01C058235083E901219785
:10052000F1F76695415099F7772321F0908189235F
:10053000808303C08081982B90831FBF5C968D9130
:100540009C915D970197F1F721E030E0C901DF91BF
:10055000CF911F9108952091B7013091B8012817CC
:10056000390771F48091B6012091B50190E0805C6B
:100570009F4F821B910960E470E00E9490060895ED
:1005800080E090E008952091B7013091B8012817DC
:100590003907B9F49091B5018091B601981789F0A7
:1005A000E091B501F0E0E459FE4F80812091B50162
:1005B00030E02F5F3F4F2F7333272093B50190E03A
:1005C00008958FEF9FEF0895E091B701F091B80182
:1005D000E817F90769F4A389B4899C918589809506
:1005E00089238C931092B8011092B70181E008958D
:1005F00080E00895089580E090E008950E94BE068E
:100600006115710579F0FB0101900020E9F7319740
:10061000AF01461B570BDC01ED91FC910280F38189
:10062000E02D099480E090E008950F931F93CF93FD
:10063000DF93EC010E9400038C0160E571E0CE01C4
:100640000E940003800F911FDF91CF911F910F91A6
:1006500008951F920F920FB60F9211242F933F937C
:100660004F935F936F937F938F939F93AF93BF93BA
:10067000EF93FF9389EB91E00E94FF00FF91EF91D0
:10068000BF91AF919F918F917F916F915F914F91AA
:100690003F912F910F900FBE0F901F9018951F92B2
:1006A0000F920FB60F9211242F938F939F93EF9376
:1006B000FF93E091C901F091CA018081E091CF01DF
:1006C000F091D00182FD12C090818091D2018F5FA4
:1006D0008F732091D301821751F0E091D201F0E0A5
:1006E000E754FE4F958F8093D20101C08081FF9126
:1006F000EF919F918F912F910F900FBE0F901F90B0
:1007000018951F920F920FB60F9211242F933F93BB
:100710008F939F93AF93BF938091AD019091AE0162
:10072000A091AF01B091B0013091AC0123E0230F53
:100730002D3720F40196A11DB11D05C026E8230F19
:100740000296A11DB11D2093AC018093AD01909341
:10075000AE01A093AF01B093B0018091B10190912F
:10076000B201A091B301B091B4010196A11DB11DD8
:100770008093B1019093B201A093B301B093B401FF
:10078000BF91AF919F918F913F912F910F900FBE8D
:100790000F901F9018951F920F920FB60F92112471
:1007A0002F933F934F935F936F937F938F939F9379
:1007B000AF93BF93EF93FF93E091B701F091B8012E
:1007C000309709F451C0968DA685B785858591FF30
:1007D00004C09C91892329F447C09C91892309F086
:1007E00043C0A389B4899C918589809589238C9382
:1007F000868997890197F1F7608D718DA685B785F8
:10080000558538E020E0CB010197F1F7822F90E089
:1008100095958795282F4C91452309F020683150F4
:1008200091F7868D81FD20958091B60190E001962B
:100830008F7399273091B501381749F0A091B6010F
:10084000B0E0A459BE4F2C938093B60103C0868DAF
:100850008160868F828D938D0197F1F7A389B4898A
:100860009C918589892B8C93FF91EF91BF91AF91DA
:100870009F918F917F916F915F914F913F912F91B8
:100880000F900FBE0F901F901895CF93DF9310928B
:10089000BC011092BB0188EE93E0A0E0B0E0809331
:1008A000BD019093BE01A093BF01B093C00124E0AD
:1008B00031E03093BA012093B90125EC30E0309358
:1008C000C6012093C50124EC30E03093C801209389
:1008D000C70120EC30E03093CA012093C90121EC1C
:1008E00030E03093CC012093CB0122EC30E0309308
:1008F000CE012093CD0126EC30E03093D00120933F
:10090000CF011092D2011092D3011092D401109213
:10091000D501109259021092580280935A02909376
:100920005B02A0935C02B0935D0286E191E090933C
:1009300057028093560210926D0210926C02109230
:100940006F0210926E021092710210927002109259
:10095000730210927202609174026E7F6D7F6093D9
:1009600074026695617081E068278BE00E949301B4
:10097000E9EBF0E02491E5EAF0E08491882399F036
:1009800090E0880F991FFC01EA57FF4FA591B491A1
:10099000FC01E458FF4F859194918FB7F894EC9146
:1009A000E22BEC938FBFE9EBF0E0E491E093660279
:1009B000E5EAF0E0E491F0E0EE0FFF1FE458FF4FAE
:1009C000859194919093680280936702E8EBF0E040
:1009D0002491E4EAF0E084918823C1F090E0880F4C
:1009E000991FFC01EA57FF4FC591D491FC01E458CF
:1009F000FF4FA591B4919FB7F8948881E22FE095BD
:100A00008E2388838C91E823EC939FBF809174029E
:100A100081FD04C061E08AE00E9493018AE0809336
:100A20006202E8EBF0E0E491E0936302E4EAF0E0D4
:100A3000E491F0E0EE0FFF1FE057FF4F8591949196
:100A40009093650280936402DF91CF91089578942A
:100A500084B5826084BD84B5816084BD85B58260C3
:100A600085BD85B5816085BD80916E008160809374
:100A70006E001092810080918100826080938100DD
:100A800080918100816080938100809180008160ED
:100A9000809380008091B10084608093B100809148
:100AA000B00081608093B00080917A008460809370
:100AB0007A0080917A00826080937A0080917A0037
:100AC000816080937A0080917A00806880937A00B8
:100AD0001092C100E091C901F091CA0182E08083C7
:100AE000E091C501F091C6011082E091C701F0913B
:100AF000C8018FEC80831092D101E091CD01F0917B
:100B0000CE0186E08083E091CB01F091CC01808121
:100B100080618083E091CB01F091CC01808188607D
:100B20008083E091CB01F091CC018081806880834B
:100B3000E091CB01F091CC0180818F7D808364E2D4
:100B400071E089EB91E00E941503109271021092FE
:100B5000700210926F0210926E0210926D0210924B
:100B60006C0285E690E090937302809372029091FC
:100B70006202963108F057C021E230E030936D02F6
:100B800020936C0223E630E030936F0220936E02D4
:100B900022E430E0309371022093700220916800CB
:100BA000983050F031E09E3008F430E081E001C030
:100BB000880F3A95EAF701C084E0822B80936800A1
:100BC000983038F09E3040F0963148F020E030E028
:100BD00008C02DE630E005C02BE630E002C02CE670
:100BE00030E030936A0220936902983030F481E05B
:100BF00001C0880F9A95EAF70EC0292F30E09E3089
:100C000018F42850310902C02E50310981E001C08A
:100C1000880F2A95EAF780936B0280917202909177
:100C200073020197F1F78091700290917102892B04
:100C300021F18091B7019091B80122E086359207A9
:100C4000E1F0009711F00E94E402809174028E7F1F
:100C5000809374021092B6011092B50186E592E07D
:100C60009093B8018093B701E0916902F0916A0214
:100C7000908180916B02892B808368EC70E080E02A
:100C800090E00E94040261E371E086E592E00E9438
:100C9000150364E170E080E090E00E94040262E4E9
:100CA00071E086E592E00E94150364E170E080E067
:100CB00090E00E94040263E571E086E592E00E9404
:100CC000150364E170E080E090E00E9404026FE5AB
:100CD00071E086E592E00E94150386E592E00E94AD
:100CE000AB02181619067CF486E592E00E94C30256
:100CF000E091B901F091BA010190F081E02D682FE7
:100D000089EB91E009950E948901E7CF86E191E0A6
:100D1000909357028093560286E592E00C94E40289
:100D200097FB072E16F4009407D077FD09D00E9498
:100D3000A40607FC05D03EF4909581959F4F089539
:100D4000709561957F4F0895AA1BBB1B51E107C0A9
:100D5000AA1FBB1FA617B70710F0A61BB70B881F4B
:100D6000991F5A95A9F780959095BC01CD010895DA
:100D7000EE0FFF1F0590F491E02D099481E090E0C3
:100D8000F8940C94C30610E0C2E6D0E004C0FE0163
:100D90000E94B8062196C336D107C9F7F894FFCF51
:100DA0000000000020018D00B8006701E900C700C5
:100DB000DB000000000057028D00FB025602AB0270
:100DC000C3023E0242542069732072656164792136
:100DD0000041542B4E414D453D5445414D30310D60
:100DE0000A0041542B505357443D22393939392296
:100DF0000D0A0041542B524F4C453D300D0A004125
:0C0E0000542B434D4F44453D310D0A007A
:00000001FF
